:020000040800F2
:10300000000001206D8B00083531000837310008C1
:10301000393100083B3100083D3100080000000054
:103020000000000000000000000000004131000826
:103030003F3100080000000043310008453100081E
:10304000493100084B3100084D3100084F3100086C
:10305000513100085331000855310008573100083C
:103060005B3100085F310008633100080000000098
:103070000000000000000000000000000000000050
:1030800000000000000000007531000877310008E2
:10309000793100087B3100087D3100087F3100085C
:1030A000813100088331000885310008873100082C
:1030B000893100088D3100088F31000891310008F6
:1030C00093310008953100089731000899310008C4
:1030D0009B3100089D310008A1310008A331000890
:1030E000A7310008A9310008AB310008AD31000854
:1030F000AF310008B1310008B3310008B531000824
:10310000B7310008B9310008BB310008BD310008F3
:10311000BF310008C1310008C5310008C7310008BF
:10312000C9310008CB310008CD310008CF3100088B
:043130005FF8000044
:103134007047FEE7FEE7FEE7FEE77047704770471B
:1031440000F000B970477047704770477047704788
:10315400704700F0EFB800F0E7B800F0EDB800F009
:10316400E5B87047704770477047704770477047BD
:103174007047704770477047704770477047704793
:103184007047704700F079B87047704770477047D0
:10319400704770477047704700F0CAB8704700F036
:1031A400C1B87047704770477047704770477047A1
:1031B40070477047704770477047704700F0BEB85B
:1031C40070477047704770477047704710B501F0FB
:1031D400C3FD164BD877DA7F1C466E2A144B04D8ED
:1031E4001A78132A03D8013200E000221A701B78DF
:1031F400142B0AD1FF2003F06FF9162003F078F99D
:1032040003F05EF908B903F0BFF8E37F6A2B094BBA
:1032140003D9064AD27F822A03D91A7842F00102DE
:1032240002E01A7802F0FE021A7010BD6E1C002033
:10323400541C0020611E0020024B5A6801325A605F
:10324400704700BF541C002003F0AFBA00F073BDF8
:1032540003F0B6B808B500F099FE014B987708BDA5
:103264006E1C002008B50820002100F09DFFBDE879
:1032740008401020002100F097BF10B54FF08040A7
:10328400102105F088FA002848D04FF08040102122
:1032940005F08CFA224C4FF08040002105F089F9AA
:1032A4004FF08040042105F08EF900F044FD237AAC
:1032B4000133DBB2032B237204BF00232372237A6E
:1032C40063BB01F055FD164B5B899B0701D100F0F0
:1032D40077FE638903F00703012B01D1FFF7ACFFED
:1032E400638903F01F03022B05D103F05EFA03F098
:1032F40067F8FFF7AFFF6389C3F30903032B01D119
:10330400FFF7B0FF6389C3F30C03052B01D1FFF76B
:103314005DFF63899BB201339BB2638110BD00BF23
:10332400541C002002F036BD02F006BE02F040BE7E
:1033340002F086BE02F02CBF02F066BF02F0C2BFEC
:1033440000F03EBE01F022BC01F012BD08B54FF4FE
:10335400614100F0D7F8002220B1034B01201A701C
:103364005A809A8008BD00BF601C002000F0D2B8CB
:1033740007B5C3B2000A8DF80400FF22C0438DF8DC
:1033840000208DF802305522DB438DF8050006211C
:1033940068468DF803308DF8012000F0BCF8831FD7
:1033A4005842584103B05DF804FB38B5254C2078E9
:1033B400012846D0A388052B0DD8C3F10601A01D12
:1033C400184489B200F0B6F84FF6FF73984202D061
:1033D400A3881844A080A18801292AD900221A4868
:1033E40093B2155CFF2D06D14D1E954203DD1044AA
:1033F4004078552806D0013290B2013388429BB2FE
:10340400EDD300E0ABB18B4206D1E2185279FF2A2A
:1034140004BF03F1FF339BB21A468A4207D2A018B5
:103424008579D01A20440132857192B2F5E7CB1A1E
:10343400A380A288034B062A02D100229A719A80A3
:10344400207838BD601C0020661C0020024B00223E
:103454001A705888704700BF601C002001284FF480
:103464008071034801D103F0E4BE03F0E0BE00BF65
:103474000010014038B5214C0023A3810225A08906
:1034840058BBFFF7EBFF022001F06AFB0120014665
:1034940002F05EFB4FF48071194803F0CAFE0A2063
:1034A40001F05EFB0120212102F04CFC01202121CE
:1034B40002F048FC40F2311001F052FB012002F00E
:1034C400FCFB30B1012002F015FC2128F6D10123C8
:1034D400A381013D15F0FF05D1D1322001F040FB5D
:1034E4000020FFF7BBFF022001F03AFB04484FF431
:1034F400807103F09EFEA08938BD00BF601C0020CF
:103504000010014008B501204FF4614101F03CF87E
:10351400012008BD704770B506460D460024A3B2CD
:10352400AB4205D2315D012002F00CFC0134F6E718
:10353400284670BDF8B5074601200E4602F0BDFBD3
:1035440080B100240120A5B202F0B7FB68B10120CC
:1035540002F0D0FB38550134A3B20135B342ADB209
:10356400F0D302E04FF6FF70F8BD2846F8BD000026
:10357400F8B58178032909D90223002402E0033332
:10358400DBB22C464A1E934202DB83B10020F8BD15
:103594001B4EC218D578F778BD42F0D1F37803708A
:1035A4000223437083701379C37093780371FE2CE4
:1035B400ECD014B30020012102F0CAFA02F0A0FEFC
:1035C400104B1E681F46002002F077FB48B93B6889
:1035D4009B1B192BDAD8022002F06FFB0028F2D0D3
:1035E400D4E7074D002005F5807102F085FB95F8BE
:1035F4000031A342E7D102F08BFE0120F8BD00BFE9
:103604006E1C0020581C002070B58178032926D92F
:10361400037923B38A1E934221DA0222CC1AA242EE
:103624001DDA104CE5788418E678AE4213D10122F5
:103634009A4206D8A118CD7881180132CD70D2B241
:10364400F6E701338370437803F07F034370FE236E
:103654000370012070BD5C1C2244D2B2DEE700205E
:1036640070BD00BF6E1C0020F0B58178012928D9F7
:10367400C2787E2A27D88B18023BDBB27E2B22D855
:10368400934220D3114DAC5CECB1EB5C022B1AD00D
:103694000346C4B2171B1F44FFB205EB47071E794C
:1036A40097F87FC00133B4450DD897F88070B742BE
:1036B40009D3C4F101041C44E4B28C42E9D30020D0
:1036C400F0BD4020F0BD0820F0BD00BF0000002088
:1036D4001A2813B54ED015D8182822D03CD804285F
:1036E40078D13D4B00201C793C4B0134B3FBF4F4FE
:1036F400214600F049FF0220214602B0BDE81040F7
:1037040000F042BF532846D054284DD01C2861D124
:10371400314B988BC1008208C309C00B009006206E
:1037240030E02D4B1A7E02F0FF0072B1187EC0B259
:10373400012806D101F065FA02B0BDE8104002F09C
:10374400EFBD1B7E022B45D1012001F05AFA02B0D5
:10375400BDE8104002F0ECBD1F4C0121607E00F07A
:1037640023FD607E0021C043C0B202B0BDE810401A
:1037740000F01ABD184B588BC1008208C309C00B56
:103784000090052001F0F80102F0F80203F0F803BC
:1037940000F000FE1EE0104B93F85330D3B902B092
:1037A400BDE8104002F0B0BE0B4C94F8530002F098
:1037B40093FE02F085FE234618B194F85320FE2AA6
:1037C40008D193F8540002F093FE02B0BDE8104013
:1037D40002F0DABD02B010BD6E1C002080841E0011
:1037E40070B5C57804460023DAB25019A1780132C5
:1037F400D2B29142C0B203F1010304D92244D17878
:10380400094A1154F0E7E6780025EBB29819A2783A
:103814000133DBB29A42C0B205F1010502D9FFF7C8
:1038240057FFF2E770BD00BF6E1C002010B5094BB6
:10383400427893F8F31104460A434270DB78214638
:103844000370002002F07FFA21460220BDE81040F8
:1038540002F079BA6E1C002010B5054B0446587965
:10386400400001F041F92046BDE81040FFF7DEBFFB
:103874006E1C0020054B01464A7893F8F30102437D
:103884004A70DB7802200B7002F05DBA6E1C0020D7
:1038940010B5054B04465879400001F025F920463F
:1038A400BDE81040FFF7E6BF6E1C0020084991F800
:1038B400F331CA781843002381F8010181F800210B
:1038C40081F80231022001F5807102F03CBA00BF98
:1038D4006E1C002010B5054B04465879400001F0D9
:1038E40003F92046BDE81040FFF7E0BF6E1C00203E
:1038F400F0B58378012B204B24D9DA78C678007987
:1039040083F80021002283F8012183F80201D4B254
:10391400A5198442EDB20AD2202D02D1174C0127F9
:103924002770174C5D5D1444E5700132EFE70129FF
:10393400134803D1BDE8F040FFF78EBFBDE8F04067
:10394400FFF7A6BF01290BD1DA7803F5807083F85D
:103954000021402283F80121002283F80221E9E7B3
:103964001B7C012B07D90378FE2B04D0BDE8F04063
:103974004020FFF7AFBFF0BD6E1C0020501C00209C
:103984006E1D002030B5C1B00021F322664C03A89F
:1039940005F09AF96FF01F030025237719200323FC
:1039A40063776576A576E576FFF792FE1A20FFF732
:1039B4008FFE1C20FFF78CFE0220012102F0C8F8C4
:1039C4002846012102F0C4F8002100910620FF22BC
:1039D4000B4600F0DFFC022002F06FF90028FAD059
:1039E400022003A902F088F90022FF2100920B466D
:1039F400062000F0CFFC02F059F99DF80C30E27873
:103A0400934201D0FE2BDFD19DF80D300F2B0ED148
:103A140094F8F531922BD7D10020444902F093F960
:103A2400424903A8F32205F0C7F8012100E0002170
:103A34009DF80D30922B0CD1012904D03B4803A9E9
:103A4400F32205F0B9F803A8FFF792FD0128014617
:103A5400BAD19DF80D30832B05D103A8FFF7D4FD0F
:103A640001280146B0D19DF80D30013B0C2B4DD8F7
:103A740001A252F823F000BFF33A0008D93A000833
:103A8400B13A0008113B0008113B0008F73A00085E
:103A9400F73A0008113B0008113B0008113B0008ED
:103AA400113B0008113B0008CD39000803A8FFF7BB
:103AB400DBFD237C0546012B05D99DF80C30FE2B3C
:103AC40001D0FFF707FF002D7FF47EAF03A8FFF7B7
:103AD40087FE79E7237C002B3FF476AF9DF80C300A
:103AE400FE2B3FF471AF03A8FFF702FF6CE7002041
:103AF40016E0237C012B06D99DF80C30FE2B02D056
:103B04000020FFF7E7FE03F0DFFC5DE7237C012BD9
:103B14007FF65AAF9DF80C30FE2B3FF455AF402092
:103B2400FFF7D8FE50E700BF6E1C0020621E002085
:103B34002DE9F84F314C002604F5807703254FF02A
:103B4400FE084FF0020A05233046394684F8033153
:103B540084F8008184F8015184F802A184F8046196
:103B640002F0F1F8042384F8023101234FF0100924
:103B740084F8043130462423394684F8053184F826
:103B840006314FF0FF0B84F8008184F8015184F86A
:103B9400039102F0D8F80E233046394684F80331F5
:103BA40084F8008184F8015184F8025184F804B146
:103BB40084F8055102F0C7F822233046394684F8C8
:103BC400033184F8008184F8015184F8025184F8A7
:103BD40004B184F8055102F0B6F81C2384F800817E
:103BE40084F8015184F802A184F8033184F8049123
:103BF40030463946BDE8F84F02F0A5B86E1C0020E7
:103C040008B5FFF795FFBDE80840002002F0A8B80A
:103C1400704738B50E4CFE23002584F80031032389
:103C240084F8013102211823284684F8021184F80B
:103C3400033184F8045101F08BFF284604F58071A8
:103C440002F081F82846BDE8384002F089B800BF88
:103C54006E1C002010B500230A4A0B499A5CCA5412
:103C64000133182BF8D1094A92F8300092F8314008
:103C74000232844238BF0020C85401337F2BF3D171
:103C840010BD00BF7D0100206E1C00207F000020BD
:103C940010B504460421064814B103F0C8FA01E043
:103CA40003F0C7FA0034034B18BF01241C7010BD85
:103CB400001401409501002010B504464FF48051D2
:103CC400064814B103F0B3FA01E003F0B2FA003489
:103CD400034B18BF01245C7010BD00BF00100140ED
:103CE4009501002037B504230DEB030114250324AB
:103CF4000E48ADF804308DF807508DF8064003F0F7
:103D040034FA4FF4805301A90948ADF804308DF812
:103D140007508DF8064003F028FA0120FFF7B8FF9A
:103D24000120FFF7C9FF03B030BD00BF00140140FC
:103D340000100140D6E770B58E484FF4805103F06F
:103D440064FA8D4D421E50426B785041984240F0C7
:103D540010818A4C2378023B142B00F28F80DFE819
:103D640003F00B0F14192227353A3F8D8D4C505513
:103D74006F74798D7E838800FFF7B4FF03237CE0A2
:103D84000020FFF785FF042377E00020FFF794FF6E
:103D9400012372E06378AA78012090401840FFF76D
:103DA40077FF062369E00120FFF786FF072364E01D
:103DB4000020FFF781FFAA786F4B0AB908235CE063
:103DC4009A78013AD2B29A70052356E00120FFF79F
:103DD4005FFF092351E00120FFF76EFF0A234CE047
:103DE4000421674803F011FA01280CBF0C230B23AC
:103DF40000202370FFF760FF40E00120FFF748FF39
:103E04001CE00120FFF758FF0F2336E05C48042133
:103E140003F0FBF9012805D1A378AA789040184350
:103E2400C0B2A0700020FFF747FFAA78524B0AB92E
:103E3400102322E09A78013AD2B29A700E231CE041
:103E44000020FFF725FF112317E00120FFF734FFBF
:103E5400122312E00020FFF72FFF13230DE00020B0
:103E6400FFF716FF152308E00120FFF725FF1623AF
:103E740003E00120FFF70CFF00232370E178414B9E
:103E8400C9B203EB410213F81130052B71D8DFE8F6
:103E940003F0030C1C325D3C2278384B0AB9022231
:103EA40011E01A78012A64D15AE02178334BC9B25F
:103EB4000B291DD00C291BD001295AD152785A70D4
:103EC4000722AA7005221A7070BD21782B4BC9B243
:103ED400012902D0132906D070BD00229A7007224E
:103EE400AA700D22EFE799785278C9B21A44117179
:103EF40001221A7034E02278204B012A01D11422C5
:103F0400E1E71A78002A34D12AE025796379207A06
:103F140043EA0525637A2EB2A17943EA0020E379C6
:103F240016F5805FC9B2DBB20DD006B216F5805F1C
:103F340009D043EA01210BB213F5805F03D0124B81
:103F44009D85D88519865378E37070BDA17A0B4B93
:103F540009B952780CE09A7A012A06D100229A72A1
:103F6400DA780132D2B2DA7070BD9A7A013AD2B2FA
:103F74009A7270BD0010014095010020551F002069
:103F840000140140608D00086E1C002010B54FF431
:103F940080510A4803F039F94FF40061012814BF35
:103FA40002240024054803F030F9012803D0002C32
:103FB40014BF03240124204610BD00BF00080140A3
:103FC40070B5614C2378013303F01F0323706388B9
:103FD4009BB20BB9D023638063889BB2013B9BB235
:103FE4006380A3889BB213B9574BD0229A80A388CD
:103FF40056489BB2013B9BB21021A38003F005F904
:104004000128514D06462CD0AB79CBB12B899BB2FC
:10401400013B9BB22B812B899BB28BB9AB79013BC2
:10402400DBB2AB7140F20D432B81AB7AD3F10103C8
:1040340038BF0023AB72AB7903F0FF0203B9AA7255
:10404400A37A42484FF4807133B103F0F0F83F484B
:10405400012103F0EEF83AE003F0EBF83B480121CC
:1040640033E00823AB7140F20D432B81AB889BB244
:10407400672B01D8EB7A0BBB2278237B33489A4217
:104084004FF4807102D303F0D2F801E003F0D1F8C9
:104094002278637B2D489A424FF0010102D303F04A
:1040A400C6F801E003F0C5F82278A37B27489A42BA
:1040B4004FF002010DD203F0BCF80CE023484FF49A
:1040C400807103F0B4F82148314603F0B0F81F487A
:1040D400022103F0ACF863889BB2672B02D81A4B19
:1040E400DB7B13BB2278237C19489A424FF0800172
:1040F40002D303F09CF801E003F09BF82278637C80
:1041040012489A424FF0040102D303F090F801E000
:1041140003F08FF82278A37C0C489A424FF00801F0
:104124000DD2BDE8704003F084B80948802103F043
:104134007EF80648042103F07AF804480821BDE813
:10414400704003F074B800BF601F002000080140F5
:1041540000100140042808B502D11148402116E09E
:10416400022803D10F484FF4805110E0012803D1F5
:104174000B484FF400410AE0102803D108484FF4DB
:10418400005104E0082809D105484FF4804103F0A8
:1041940045F810F1FF3018BF012008BD002008BD0C
:1041A40000100140000C014001292DE9F8430446A8
:1041B40000F0040300F0020900F0010800F0100709
:1041C40000F00806284D25D11BB12848402103F0F2
:1041D40030F8B9F1000F04D025484FF4805103F0B2
:1041E40028F8B8F1000F04D020484FF4004103F040
:1041F40020F827B11D484FF4005103F01AF826B1F6
:104204001A484FF4804103F014F86B7E1C4304F009
:10421400470425E01BB11548402103F008F8B9F123
:10422400000F04D012484FF4805103F000F8B8F1A5
:10423400000F04D00D484FF4004102F0F8FF27B1FD
:104244000A484FF4005102F0F2FF26B107484FF438
:10425400804102F0ECFF6B7E03F05F0323EA040469
:104264006C76BDE8F88300BF6E1C0020001001408E
:10427400000C014010B580210D4802F0CFFF431E11
:104284005C424FF004010B485C4102F0C7FF012877
:1042940008BF44F002044FF00801064808BFE4B226
:1042A40002F0BCFF012808BF44F00404204610BDFE
:1042B400001001400008014010B50446E207104810
:1042C4004FF0800102D502F0B4FF01E002F0AFFF2D
:1042D400A3070C484FF0040102D502F0AAFF01E045
:1042E40002F0A5FF620707484FF0080103D5BDE8B7
:1042F400104002F09EBFBDE8104002F098BF00BF1E
:10430400001001400008014010B54FF480710D48C1
:1043140002F084FF411E4C424C410A48012102F044
:104324007DFF012808BF44F002044FF00201054854
:1043340008BFE4B202F072FF012808BF44F004048D
:10434400204610BD0008014010B50446E20710489D
:104354004FF4807102D502F06CFF01E002F067FFB8
:10436400A3070B484FF0010102D502F062FF01E000
:1043740002F05DFF640706484FF0020103D5BDE873
:10438400104002F056BFBDE8104002F050BF00BF1D
:104394000008014010B505289DF808400ED11048CA
:1043A40000344FEAD1014FEAD2024FEAD30318BFD7
:1043B4000124017442748374C47310BD06280DD1A2
:1043C400074800344FEAD1014FEAD2024FEAD3033F
:1043D40018BF0124017342738373C47210BD00BFFC
:1043E400601F002070B588B01E4C01A803F07FFE4A
:1043F40004A803F085FE204603F0F2FC47230025C1
:10440400ADF8043020464FF4FA6301A9ADF8083042
:10441400ADF80650ADF80A508DF80C5003F044FD89
:104424006023ADF81030BDF808300126F340204673
:10443400ADF8163004A90223ADF81830ADF81260B7
:10444400ADF8145003F00EFE2046294603F093FF06
:104454002046314603F06FFE2046314603F077FED6
:1044640008B070BD0008004010B588B001A803F082
:104474003EFE04A803F044FE4FF0804003F0B0FC7D
:1044840000244FF6FF7301A94FF08040ADF80830C7
:10449400ADF80440ADF80A40ADF8064003F004FD61
:1044A40001224FF0804040F2D22103F0C5FE0423E4
:1044B40004A94FF08040ADF81630ADF81040ADF8C7
:1044C4001240ADF8184003F0CDFD21464FF0804076
:1044D40003F051FF01224FF08040102103F045FE0C
:1044E4004FF08040012103F026FE08B010BD08B54E
:1044F40042F2283003F004FCBDE80840012003F038
:1045040019BC10B503F0F0F84FF4803003F00AF949
:1045140003F05AFA012804460DD046F63D60012105
:1045240003F0FCF91748012103F004FABDE8104038
:10453400012003F082B8102002F096FB022002F062
:104544007BFB002003F03CF9002003F04DF94FF40D
:10455400806003F03FF94FF480304FF4E01103F032
:104564000DF9204603F014F9392003F019FA002854
:10457400FAD0022003F012F903F01AF90828FBD14B
:10458400CBE700BF0F4014187FB5054668460024EA
:104594000E4604F09DF90C230096ADF80440ADF8E6
:1045A4000640ADF80840ADF80C40ADF80A30002DD7
:1045B4003BD15A4B5A481E6004F0FCF858486946EF
:1045C40004F042F9564840F22551012204F0ADF9B5
:1045D400534840F226612A4604F0A7F9504840F2B5
:1045E40027712A4604F0A1F94D4840F66A112A467B
:1045F40004F09BF94A4840F224412A4604F095F914
:10460400474828212A4604F090F9454840F64601D7
:104614002A4604F08AF9424860212A4604F085F9C2
:10462400284601F01DFB3E4873E0012D34D13B4B7D
:104634003C485E6004F0BEF869463A4804F004F968
:104644002246384840F2255104F06FF92246354895
:1046540040F2277104F069F92246324840F226619B
:1046640004F063F922462F4840F2244104F05DF936
:1046740022462C48282104F058F92246294840F6BD
:10468400460104F052F927486021224604F04DF90E
:10469400284601F0E5FA3FE0022D3DD11F4B2248A8
:1046A4009E6004F087F82048694604F0CDF81E485F
:1046B40040F22551012204F038F91B4840F22661EA
:1046C400224604F032F9184840F22771224604F0D9
:1046D4002CF9154840F66A11224604F026F91248CE
:1046E40040F22441224604F020F90F4828212246B2
:1046F40004F01BF90C4840F64601224604F015F973
:1047040009486021224604F010F9284601F0A8FA6D
:104714000548012104F0FDF804B070BD98010020A3
:1047240000380140005000400048004010B9074BD9
:1047340018687047012802D1044B58687047022852
:1047440002D1024B986870470020704798010020FE
:1047540030B587B001A802F021F900244FF460239A
:104764000125284801A9039301948DF808408DF888
:10477400095004948DF8145002F0ECF8224801A971
:1047840002F0E8F800F0B8FA1E484FF40871224627
:1047940002F01FF922461C484FF4087102F019F97F
:1047A4001848294602F003F91748294602F0FFF891
:1047B400144802F017F9134802F019F90028FAD145
:1047C400114802F00FF9104802F011F90028FAD14B
:1047D4000C4802F010F90B4802F012F90028FAD143
:1047E400094802F008F9084802F00AF90028FAD149
:1047F4000448012102F008F90348012102F004F9F8
:1048040007B030BD002401400028014030B587B016
:1048140001A803F0AAF94FF48272ADF80620114DF5
:1048240002220023ADF80A204FF40072ADF80430E0
:10483400ADF808300124ADF80E20ADF8123008228E
:104844000723284601A9ADF81020ADF81430ADF8BF
:104854000C4003F019F92846214603F09BF907B0F0
:1048640030BD00BF003800402DE9F743624D01A878
:10487400032402F0C2FC102640F20313284601A9C7
:104884000427ADF804308DF806408DF8076002F077
:104894006CFC2823284601A98DF80730ADF8046084
:1048A40002F063FC4FF4806328460DEB07014FF0E0
:1048B4001809ADF804308DF8077002F056FC4FF477
:1048C400007328460DEB07014FF00008ADF80430E3
:1048D4008DF806408DF8079002F047FCFF23284628
:1048E4000DEB0701ADF804308DF8078002F03DFCB4
:1048F4004FF4C053ADF804302846482305F58065CD
:104904000DEB07018DF8073002F02FFC41F2243340
:1049140028460DEB0701ADF804308DF806408DF8FC
:10492400076002F022FC4FF4807328460DEB070168
:10493400ADF804308DF806408DF8076002F015FCE0
:104944004FF4086328460DEB0701ADF804308DF8E9
:10495400077002F00AFC4EF2406328460DEB070193
:10496400ADF804308DF806408DF8079002F0FDFB99
:1049740028460DEB070105F58065ADF804408DF878
:10498400078002F0F2FB4EF6CC4328460DEB0701FC
:10499400ADF804308DF806408DF8076002F0E5FBB1
:1049A4004FF4805328460DEB0701ADF804308DF821
:1049B40006408DF8079002F0D8FB3F2328460DEB04
:1049C4000701ADF804308DF8078002F0CEFB0DEB43
:1049D40007010A48ADF804708DF8077002F0C5FBB2
:1049E4003846012102F04AFC0548012102F046FC48
:1049F40003B0BDE8F08300BF00080140001401408B
:104A04000004300007B54FF440514FF0006002F04D
:104A140051FD4FF4C06002F0A3FC1C238DF8043058
:104A24000022012301A88DF805308DF806208DF8A9
:104A3400073002F09FFC03B05DF804FB10B5264C70
:104A440004F07FF8FFF75DFDFFF7DCFFFFF70CFFD5
:104A540002F016F9A1680220FFF796FD21680020F4
:104A64001E4CFFF791FD0020FEF770FC01F060FC86
:104A740001F04EFCFFF76CFEFFF739FDFFF7F4FC85
:104A840020464FF4006102F0D2FB20464FF48061CF
:104A940002F0CDFBFFF7BAFEFFF7A4FC01F034FDF2
:104AA40020464FF4007102F0C4FB20210C4802F0B0
:104AB400BEFB01F01DFE01F069FEFFF73BF901208A
:104AC400FEF7CCFCFFF7C6F8064B002283F87C20E7
:104AD400BDE8104004F037B89801002000100140F0
:104AE400000C01406E1C002001231A46824202D8A9
:104AF40053430132FAE71A460123834202D85A4348
:104B04000133FAE70123834202D85A430133FAE717
:104B14000123834202D85A430133FAE70123834233
:104B240002D85A430133FAE70123834202D85A4395
:104B34000133FAE713460122824204D840F2D92114
:104B440001324B43F8E70122824204D840F29B1120
:104B540001324B43F8E7014A13607047741F002089
:104B640010B50446012003F0D1F8074B9C809C88C3
:104B7400A4B2002CFBD16FF0010003F0C7F820466B
:104B8400BDE8104003F0C2B8741F0020044B9A889B
:104B940092B222B19A8892B2013A92B29A80704744
:104BA400741F002010B57B2002F0FAFE01281BD0F0
:104BB4007A2002F0F5FE012818D07C2002F0F0FEE5
:104BC400012815D07D2002F0EBFE012812D07E20B2
:104BD40002F0E6FE01280FD07F2002F0E1FE01285A
:104BE4000CBF0624002408E0022406E0044604E086
:104BF400032402E0042400E0052402F0FCFE204625
:104C040010BD10B50446012C05484FF4807102D143
:104C140002F00DFB01E002F00CFB024B9C7110BD95
:104C2400000C0140741F0020400000F1006303F5F4
:104C3400FE231888704730B5450005F1006505F579
:104C4400FE252B88ADF2044D8B420C463DD0B0F5C9
:104C5400007F3AD200235A0002F1006202F5FE22DC
:104C640012882DF813200133B3F5007FF3D12DF80A
:104C7400104002F005F8352002F04EF824B12A88DD
:104C84004FF6FF739A4204D12846214602F014F9E4
:104C940015E00F4802F075F80D4C00AB234403F106
:104CA4007843A3F5FE2319884FF6FF73994202D087
:104CB400204602F001F9074B02349C42EDD10DF27B
:104CC400044DBDE8304001F0E7BF0DF2044D30BDA6
:104CD40000F0070800F4070808B501F0D1FF3520FB
:104CE40002F01AF8034802F04CF8BDE8084001F05D
:104CF400D3BF00BF00F0070870B500230E4C00229C
:104D040024F813200133102BF8D184F8202094F8D0
:104D140020300A4D0A48E95C0122072301F092FE83
:104D240094F8203007481D44297A01220723BDE85E
:104D3400704001F087BE00BF7C1F00209C8D0008DE
:104D44000024014000280140024B33F8100080B2D7
:104D5400704700BF7C1F0020034B044A1B88C3F329
:104D640007131344187C70477C1F00209C8D000897
:104D740070B51E4C1E4894F8205001F0B4FEEDB2FC
:104D840024F815001B4894F8205001F0ACFE0835B7
:104D940024F8150094F820300133DBB284F8203075
:104DA40094F82030082B13D094F82030124D10487A
:104DB400E95C0122072301F045FE94F820300D48F8
:104DC4001D44297A01220723BDE8704001F03ABE50
:104DD400002384F8203034F813005A0007490133C3
:104DE4003332102B8852F6D1DEE700BF7C1F00203F
:104DF40000240140002801409C8D00086E1C002006
:104E040008B502F023FBBFF34F8FBFF36F8F08BDCC
:104E140038B5002505700446457029468570F02292
:104E2400C57005714571063003F04EFF84F8F650E5
:104E340038BDF8B54FF48066044600250F46324667
:104E4400002103F041FFA4F8005429463246A4F897
:104E5400025404F2044003F037FFA4F8045804F6A3
:104E64001200A4F80658A4F80858A4F80A58A4F89C
:104E74000C58A4F80E58A4F81058FFF7C9FF6FF0A7
:104E84001903C4F80C3984F8105984F81179F8BD61
:104E9400F8B54FF48066044600250F4632460021DB
:104EA40003F012FFA4F8005404F20440A4F80254DE
:104EB4002946324603F008FFA4F80458A4F806581B
:104EC400A4F8085884F80A58A4F80C58A4F80E5802
:104ED400A4F8105884F8125884F8135884F81478F5
:104EE400F8BD154A154BB2F80818A3F85B10B2F8D0
:104EF4000A18A3F85D10B2F80C18A3F85F10B2F802
:104F04000E18A3F86110B2F81018A3F8631002F594
:104F14008851888B02F58952A3F86B00C98BA3F8DA
:104F24006D101188A3F86F105188A3F8711092883E
:104F3400A3F87320704700BFA40100206E1C00205A
:104F44000D4A0E4BB2F80C18A3F86510B2F80E18FF
:104F5400A3F86710B2F81028A3F86920084AB2F839
:104F64003C19A3F87510B2F83E19A3F87710B2F8FB
:104F74004029A3F8792070479E1F00206E1C002052
:104F84009C1200200020704710B50446402003F016
:104F9400E0FD94F81039002043F0010384F810393F
:104FA400BDE8104003F0D5BD38B50446402003F0F9
:104FB400D0FD94F810590020EDB284F8100903F0E4
:104FC400C8FDAA070FD594F811390BB9072004E0DE
:104FD40094F81139022B02D10820FFF711FF94F83D
:104FE40010395B07FBD538BD38B50446402003F0C3
:104FF400B0FDB4F80658B4F80448ADB2A4B2002029
:1050040003F0A7FD281B18BF012038BD2DE9F0418E
:1050140004460D46FFF7E8FF98B32046FFF7B4FFB8
:10502400B4F80468B4F80628B6B2A31993F80434A3
:1050340092B2FF2B71D1731CC3F30903234493F879
:105044000434FF2B69D1B31CC3F30903234493F83D
:105054000434311D2B70F31CC3F30903234493F868
:105064000434C1F30901023BDBB2AB70214491F873
:105074000414921B6970C2F30902591D91424CDA5F
:1050840004E028706870A870BDE8F0810536C6F3A6
:105094000906012BB6B204D1A31993F80434EB70BA
:1050A4002EE0022B0BD1A31993F80434EB70731C7C
:1050B400C3F30903234493F804342B7120E01FD96C
:1050C400771E1F44C7F30907BFB2B74205F10300B7
:1050D40006F580610FD20137DB1B1FFA83F82144E8
:1050E4000431424603F068FD05EB0800033004F286
:1050F40004413A4602E0214404311A4603F05CFDBF
:10510400AB7801331E44C6F30906B6B2A4F80468AA
:105114002046BDE8F041FFF747BF00232B706B70BA
:10512400AB70B4F806389BB2A4F80438B4F80C3861
:105134009BB201339BB2A4F80C38FFF7D2FEE7E729
:105144002DE9F04190F816380446F02B0AD9B0F84E
:105154000A389BB201339BB2A0F80A38BDE8F0418B
:10516400FFF7BFBE90F81618B0F80438B0F8062858
:105174009BB292B2013B9B1AC3F3090306319BB263
:105184008B4238BFC3EB01014FF0000334BF89B237
:1051940000211A4691424DD9B4F80A389BB2013322
:1051A4009BB2A4F80A38B4F804389BB2234493F8A9
:1051B4000434FF2B0AD1B4F804389BB20133C3F38F
:1051C4000903234493F80434FF2B0CD0B4F80638B5
:1051D4009BB2A4F80438B4F80C389BB201339BB2E8
:1051E400A4F80C3827E0B4F804389BB203339BB21C
:1051F400A4F80438B4F80438C3F30903A4F8043851
:10520400B4F804389BB2234493F804340133DBB27A
:10521400D81C0244B4F8040892B280B203449BB28E
:10522400A4F80438B4F80438C3F30903A4F8043820
:105234000123AFE70BB1FFF754FEB4F80638FF22A1
:105244009BB2C3F30901214481F80424591CC1F31E
:105254000901214481F8042494F813189A1CC2F318
:105264000902C9B2224482F8041494F81618DA1C0C
:10527400C2F309020231C9B2224482F8041494F838
:1052840015181A1DC2F309022244C9B282F8041483
:1052940094F816285D1DADB2012AC5F3090208D1A0
:1052A40094F818180633C9B2224482F804149DB243
:1052B40046E094F81618022911D194F818182244DB
:1052C400C9B282F80414DD1D94F819280633C3F317
:1052D4000903D2B22344ADB283F8042430E094F835
:1052E4001638022B2CD994F8167892B2013F174441
:1052F400C7F30907BFB2974202F5806004F61206AD
:1053040013D294F816880137C7EB08081FFA88F8F7
:105314002044B11D4246043003F04EFC06EB080164
:1053240004F2044006313A4604E0204494F8162876
:105334000430B11D03F040FC94F816381D44ADB29E
:1053440094F80829C5F309030135C5F30905D2B258
:105354002344ADB283F80424A4F80658BDE8F081D0
:1053640010B50446402003F0F4FB94F813380020F1
:1053740043F0010384F81338BDE8104003F0E9BB9F
:1053840038B50446402003F0E4FB94F81358002099
:1053940084F81308EDB203F0DCFBA8070FD594F8EA
:1053A40014380BB9092004E094F81438022B02D104
:1053B4000A20FFF725FD94F813385907FBD538BDAB
:1053C40038B50446402003F0C4FBB4F80658B4F8DA
:1053D4000448ADB2A4B2002003F0BBFB281B18BFE5
:1053E400012038BD2DE9F84F8B780446F02B0D468B
:1053F4000AD9B0F80E389BB201339BB2A0F80E382C
:10540400BDE8F84FFFF79CBDFFF7AAFF4020AF7837
:1054140003F09FFBB4F80488B4F806681FFA88F810
:10542400B6B208F1FF39C6EB0909C9F309091FFA35
:1054340089F90637B9453ABFC9EB07091FFA89F953
:105444004FF00009A4F80898B4F8063800209BB27D
:105454001F44BFB2A4F80678B4F806380027C3F393
:105464000903A4F8063803F074FBBA460AF10403EE
:105474004B452ADAB4F80E389BB201339BB2A4F838
:105484000E3804EB080393F80434FF2B20D108F101
:105494000103C3F30903234493F80434FF2B17D106
:1054A40008F10308C8F3090804EB080393F804346B
:1054B40001270133DBB2DA1C98449244C8F309088B
:1054C4001FFA8AFA1FFA88F8D0E74FF0000B01E0C0
:1054D4000127BB46402003F03CFBBBF1000F09D081
:1054E400A4F80468B4F810389BB201339BB2A4F852
:1054F40010383BE0B4F808389BB24B4536D1D1455F
:1055040032D9B4F80E389BB201339BB2A4F80E38EA
:1055140004EB080393F80434FF2B08D108F10103CA
:10552400C3F30903234493F80434FF2B09D0A4F8EC
:105534000468B4F810389BB201339BB2A4F8103855
:1055440010E008F10308C8F3090804EB080393F812
:10555400043408F101089844C8F309081FFA88F8CC
:10556400A4F80488012701E0A4F804880020A4F822
:10557400080803F0EEFA0FB1FFF7E2FCC6F30902E4
:10558400FF23224482F80434721CC2F30902224429
:1055940082F80434B31C2A78C3F30903234483F840
:1055A4000424AA78F31CC3F309030232D2B22344BD
:1055B40083F80424771D04366B78C6F30906264461
:1055C40086F80434AB782A78BFB21A446B78023276
:1055D4001A44D2B23B46A978D81BC0B28142C3F365
:1055E40009010AD92844C678214481F80464C178A1
:1055F40001330A44D2B29BB2EDE7D2430023D2B2C4
:10560400214481F8042484F8133894F814380BB92D
:10561400092004E094F81438022B04D10A20BDE8D0
:10562400F84FFFF7EDBBBDE8F88F2DE9F84391F88B
:1056340016380446F02B0D460AD9B0F80E389BB242
:1056440001339BB2A0F80E38BDE8F843FFF778BCED
:1056540091F81618B0F80438B0F806289BB292B244
:10566400013B9B1AB0F80828C3F309039BB292B21A
:105674001A44C2F30902063122B9B0F808389BB2C1
:10568400194402E08B4202D2C91A89B200E0002117
:105694000023A4F808381A4691424DD9B4F80E38BC
:1056A4009BB201339BB2A4F80E38B4F804389BB211
:1056B400234493F80434FF2B0AD1B4F804389BB282
:1056C4000133C3F30903234493F80434FF2B0CD0B0
:1056D400B4F806389BB2A4F80438B4F810389BB276
:1056E40001339BB2A4F8103827E0B4F804389BB215
:1056F40003339BB2A4F80438B4F80438C3F30903A1
:10570400A4F80438B4F804389BB2234493F804345E
:105714000133DBB2D81C0244B4F8040892B280B25C
:1057240003449BB2A4F80438B4F80438C3F309035F
:10573400A4F804380123AFE70BB1FFF701FCB4F878
:105744000638FF229BB2C3F30901214481F80424E3
:10575400591CC1F30901214481F8042495F8131854
:105764009A1CC2F30902C9B2224482F8041495F8BF
:105774001618DA1CC2F309020231C9B2224482F8B3
:10578400041495F815181A1DC2F309022244C9B26B
:1057940082F8041495F816285E1DB6B2012AC6F3E1
:1057A400090208D195F818180633C9B2224482F8C0
:1057B40004149EB249E095F81618022911D195F8FF
:1057C40018182244C9B282F80414DE1D95F8192869
:1057D4000633C3F30903D2B22344B6B283F80424D4
:1057E40033E095F81638022B2FD995F8168892B223
:1057F40008F1FF389044C8F309081FFA88F8904567
:1058040002F5806005F6120714D295F8169808F18F
:105814000108C8EB09091FFA89F92044B91D4A4651
:10582400043003F0C9F907EB090104F2044006311E
:10583400424604E0204495F816280430B91D03F0CC
:10584400BBF995F816381E44B6B295F80829C6F384
:1058540009030136C6F309062344D2B2B6B283F86B
:105864000424A4F8066894F814380BB9092004E059
:1058740094F81438022B04D10A20BDE8F843FFF74A
:10588400BFBABDE8F88338B5514B0D461968D0F856
:105894000C2904468A1A192A84BF002280F8122887
:1058A4001B68C0F80C3990F81238013B052B00F244
:1058B4008680DFE803F003070F21324BFF2D40F011
:1058C400828003E0FF2D80F8135801D102237BE08E
:1058D400032379E080F8145890F81438023BDBB2C3
:1058E40080F8163890F81438012B68D990F81638D7
:1058F400F02B64D8042367E080F8155890F8133827
:1059040090F8141890F815280B441344DBB280F86F
:105914000839002380F817380FE090F81738DBB205
:105924005A1CD2B2034480F8172883F8185890F808
:1059340008391D44EDB280F8085994F8172894F8F2
:1059440016389A420CBF062305233DE090F8083927
:10595400DB43DBB280F8083990F808399D4225D141
:10596400B0F808389BB201339BB2A0F8083890F81D
:105974001139022B04D11748FFF7E2FB08200FE08E
:1059840090F811397BB9144B93F84639012B02D1A5
:105994001248FFF7D5FB12481049FFF746FE1020C6
:1059A4000121FEF701FCFFF79CFA0CE0B0F80E3879
:1059B4009BB201339BB2A0F80E38FFF792FAFF2D89
:1059C40001D1012300E0002384F8123838BD00BF60
:1059D400581C0020B80A00209C120020A4010020BA
:1059E400CC1300202DE9F0410026044680F80A6813
:1059F4002046FFF7E5FC00287AD0B4F804389BB2BF
:105A0400234493F80434FF2B1FD1B4F804389BB219
:105A14000133C3F30903234493F80434FF2B14D153
:105A2400B4F804389BB20333C3F30903234493F853
:105A34000454B4F80628B4F8043892B29BB2D31ACA
:105A44000435C3F309039D420CD9B4F806389BB25C
:105A5400A4F80438B4F810389BB201339BB2A4F80C
:105A6400103846E003F06DF8B4F80084B4F802741A
:105A74001FFA88F803F067F8BFB208F1FF33DB1BA5
:105A8400C3F309039D4230D8002603F05AF8B4F852
:105A9400023401369BB25A1C92B2A4F80224B4F820
:105AA4000428B6B292B2511C89B2A4F80418224454
:105AB40092F80424D2B2E254B4F80234C3F30903D2
:105AC400A4F8023403F03FF8B4F80438AE42C3F348
:105AD4000903A4F80438D8D3B4F80C3801269BB2CF
:105AE40001339BB2A4F80C3882E7012384F80A3806
:105AF4001EB1BDE8F041FFF723BABDE8F08110B54F
:105B0400044603F01EF8074B4FF6BF721A809C80C0
:105B14009A8992B242F040029A81BDE8104003F0A3
:105B240012B800BF0048004010B5044603F009F85D
:105B3400064B4FF6BF721A809C809A8992B242F04B
:105B440040029A81BDE8104002F0FDBF00380140D8
:105B540038B5044640200D4602F0FBFF012C08D165
:105B6400E80727D5164B0022A3F81628A3F818280F
:105B740020E07CB9E90704D5124BA3F80648A3F842
:105B84000448AA0716D50E4B0022A3F80628A3F84A
:105B940004280FE0022C0DD1EB0703D50A4B002299
:105BA4005A831A83AC0705D5084B0022A3F836297B
:105BB400A3F834290020BDE8384002F0CABF00BF72
:105BC4009E1F0020A4010020A41200209C1200208B
:105BD400012808B506D1CA0734D51D4B0022A3F805
:105BE4001A282FE0B8B9CB070AD51A4BA3F8100826
:105BF400A3F80E08A3F80C08A3F80A08A3F80808E9
:105C040089071FD5124B0022A3F81028A3F80E28E9
:105C1400A3F80C2816E0022814D1CA0708D50E4AA6
:105C2400002393805380138022F8023C22F8043C22
:105C34008B0707D5094B0022A3F84029A3F83E2976
:105C4400A3F83C29FFF74DF9BDE80840FFF778B900
:105C54009E1F0020A4010020C41200209C120020DA
:105C640010B5044628B90D482146FFF7E2F80C4860
:105C740006E0022807D10B482146FFF7DAF80A4864
:105C84002146FFF705F920460321FFF761FF20466F
:105C94000321BDE81040FFF79BBF00BFA401002013
:105CA4009E1F0020B80A0020CC13002008B5FFF77F
:105CB40018F9BDE80840FFF743B901280AD10A4B97
:105CC400B3F81608B3F8183880B29BB2C01A18BFDC
:105CD4000120704708B9054802E0022802D10448AF
:105CE400FFF782B9002070479E1F0020A401002006
:105CF400B80A00200020704708B9064802E00228CC
:105D040002D10548FFF782B900220A704A708A70EE
:105D1400704700BFA4010020B80A002001280BD05E
:105D240018B9064B93F8120804E0022804D1044B76
:105D340093F84209C0B27047002070479E1F0020AC
:105D44009C120020704708B9034802E0022802D1DF
:105D54000248FFF747BB70479E1F0020CC1300206A
:105D640010B5044650B9094B93F813385807FAD5BF
:105D74002046FFF7D3FF0028FAD110BD0228F7D13F
:105D8400034B93F843395907FAD5F1E79E1F0020D6
:105D94009C12002038B5624B1A88194692B212F050
:105DA400200FC2F3C00501D1002D76D05D4B898848
:105DB400B3F8162DC9B292B2501C80B21A44A3F89B
:105DC400160D82F81419B3F8162DC2F30902A3F8BC
:105DD400162DB3F8160DB3F8142D80B292B290427A
:105DE40016D1B3F8142D92B2013292B2A3F8142D45
:105DF400B3F8142DC2F30902A3F8142D03F5885344
:105E0400DA8B92B2013292B2DA83474BA3F86D2057
:105E1400464B93F81C28012A33D1B3F8022492B2DA
:105E2400501C80B2A3F802049954B3F80224C2F3BC
:105E34000902A3F80224B3F80214B3F8002489B2C7
:105E440092B2914216D1B3F80024374992B201328A
:105E540092B2A3F80024B3F80024C2F30902A3F811
:105E64000024B3F80E2892B2013292B2A3F80E289D
:105E7400A1F8672093F81238012B02D00920FEF70D
:105E8400BFFF45B12A4A93889BB201339BB29380EA
:105E9400254AA2F87330082031E054063BD5254C3E
:105EA40094F84229012A2DD1B4F83015B4F83225DA
:105EB40089B292B2914212D0B4F830359BB25A1CD6
:105EC40092B22344A4F8302593F83001FFF717FE6B
:105ED400B4F83035C3F30903A4F830351BE084F873
:105EE40042599A8922F040021204120C9A814FF608
:105EF400BF721A8094F83A39012B0CD10A20FEF7AC
:105F04007FFF08E09A8922F040021204120C9A8161
:105F14004FF6BF721A80BFF34F8FBFF36F8F38BD38
:105F240000480040A40100206E1C00209E1F002099
:105F3400C41200209C12002038B51A4B1C791A791F
:105F440014F0010403D042F002021A7138BD42F089
:105F540004021A7102F0F5FD134BB3F8145DB3F8A3
:105F6400162DADB292B2AD1A18BF012585B1B3F8A2
:105F7400142D92B2511C89B2A3F8141D1A4492F83C
:105F84001449B3F8142DE4B2C2F30902A3F8142D92
:105F940002F0D9FD25B105482146FFF774FCD9E785
:105FA40038BD00BFC4130020A4010020B80A00209B
:105FB400F8B5224C94F8433913F0010F94F843399F
:105FC40004D043F0020384F8433907E043F00403A8
:105FD40004F5987084F84339FFF704FD94F84239C6
:105FE400164D012B29D002F0ACFDB5F83065B5F89B
:105FF4003235B6B29BB2F61A18BF01268EB1B5F887
:1060040030359BB25A1C92B2A5F830252B4493F834
:106014003071B5F83035FFB2C3F30903A5F8303554
:1060240000E0374602F08FFD3EB1012384F8423987
:106034003846BDE8F840FFF762BDF8BD9C12002069
:1060440010B54D4B1988184689B211F0200FC1F3D1
:10605400C00201D1002A3CD0484B8088B3F8021416
:10606400C0B289B24C1CA4B2A3F802445854B3F889
:106074000214C1F30901A3F80214B3F80204B3F83B
:10608400001480B289B2884216D1B3F800143C4897
:1060940089B2013189B2A3F80014B3F80014C1F332
:1060A4000901A3F80014B3F80A1889B2013189B2BE
:1060B400A3F80A18A0F85D104AB1B3F8102892B2F8
:1060C400013292B2A3F810282D4BA3F863200720C5
:1060D40038E049064BD52B4C94F81218012934D1D9
:1060E400B4F80004B4F8021480B289B2884210D023
:1060F400B4F800349BB25A1C92B2A4F80024E05CB9
:10610400FFF712FDB4F80034C3F30903A4F8003414
:106114002DE084F812289A891B4822F040021204C8
:10612400120C9A814FF6BF721A804FF4007101F07D
:1061340080F81648202101F07AF894F80A38012BE7
:1061440015D10920FEF75CFE11E09A890E4822F071
:1061540040021204120C9A814FF6BF724FF4007180
:106164001A8001F066F80948202101F060F8BFF3B5
:106174004F8FBFF36F8F10BD00380140A401002082
:106184006E1C00209E1F002000100140000C0140E6
:1061940070B51C4B93F810591C4615F0010506D038
:1061A40093F8102942F0020283F8102970BD93F885
:1061B400103943F0040384F8103902F0C2FCB4F837
:1061C4000064B4F80224B6B292B2B61A18BF01261B
:1061D4000C4B76B1B3F8002492B2511C89B2A3F8E7
:1061E40000149D5CB3F80024EDB2C2F30902A3F8D5
:1061F400002402F0A8FC26B102482946FFF743FB1D
:10620400DBE770BDA4010020F8B52B4C94F81338DB
:1062140013F0010F94F8133804D043F0020384F808
:10622400133806E043F00403204684F81338FFF7DC
:10623400D9FB94F81238204D012B3BD002F081FC9D
:10624400B5F80064B5F80234B6B29BB2F61A18BFBA
:1062540001267EB1B5F800349BB25A1C92B2A5F85F
:106264000024EF5CB5F80034FFB2C3F30903A5F8CA
:10627400003400E0374602F066FCDEB10F4820210E
:1062840000F0D7FF0E484FF4007100F0D0FF012357
:1062940084F81238002394F81D281A440133DBB221
:1062A400D2B2642B84F81D28F5D13846BDE8F840F5
:1062B400FFF73ABCF8BD00BF9E1F0020000C014050
:1062C400001001400C4B0D4A93F81D08118889B247
:1062D4000144C9B283F81D184FF69F61118093F8E9
:1062E4001D18928892B20A44D2B283F81D28BFF3D3
:1062F4004F8FBFF36F8F70479E1F002000500040E8
:10630400024B012283F84629704700BF9C120020EB
:10631400024B002283F84629704700BF9C120020DC
:10632400024B012283F81C28704700BF9E1F0020E7
:10633400024B002283F81C28704700BF9E1F0020D8
:10634400054B1A883AB95A882AB9192803D8DA8029
:10635400012298801A807047BC2B0020094B1A88B0
:106364007AB9332828BF3320322903D8002908BF3B
:10637400032100E03221192251430122188159815D
:106384005A807047BC2B0020044B197B587BFF2993
:1063940001D1FFF7D5BFFFF7E1BF00BFBC2B002041
:1063A40038B5064D04462146284602F004F928462D
:1063B4006108BDE8384002F006B900BF000800409B
:1063C400F8B53C4B59881A4651B1588930B1013857
:1063D40058811A89384B33F812002FE058802DE089
:1063E4001988002964D0D98951B11A8A0139012A3E
:1063F400D9815DD19A8A588A104480B298821DE06E
:10640400DB882E4D3BB99388012155F82330D18088
:106414001B88A5F868309388D78855F82330254C15
:1064240033F81700DFF894C0C0F3C31100F01F0362
:10643400D0821183538328B9E0802080BDE8F840DE
:10644400FFF7AEBF00F02006B6B266B1400648BF03
:106454005B426382B5F868300126594301372682CE
:10646400D181D780F8BD1E2B268206D1BCF86830B6
:1064740001375943E780E181F8BDA28B012A15D188
:10648400BCF868200C4D514305EB4303B3F8680096
:10649400A683E181FFF784FF638B05EB4305B5F821
:1064A4006830A382E3880133E380F8BD0123A3832A
:1064B400F8BD00BFBC2B0020AC8E0008E41B0020FC
:1064C400044B1A8822B95888003018BF012070473D
:1064D40001207047BC2B0020014B1873704700BF8C
:1064E400BC2B0020014B187B704700BFBC2B002045
:1064F400014B5873704700BFBC2B0020014B587BE5
:10650400704700BFBC2B0020024B0020588018802D
:10651400FFF746BFBC2B00202DE9F047514B5249F1
:106524001C79DA7893F806C042EA04245A791F7A6F
:1065340042EA0C2CDA7993F8018042EA07275E7B61
:106544001A7BDD7A42EA06269A7AD87B42EA052546
:106554009A7B644242EA00200A78CCF1000CC8F12C
:1065640032087642A4B21FFA8CFC5FFA88F8B6B2FD
:106574001AB100221A745A740A7093F811900C22FA
:1065840002FB0939A9F812405C7C364902FB043449
:10659400A4F814C05C7C02FB0434E7825C7C02FB3C
:1065A400043426835C7C02FB043465835C7C02FB3C
:1065B400043290835A7C0132D2B25A745A7C052A2E
:1065C40003D101220A7400224A741A7C012A16BFDC
:1065D400244A0521517C4FF0000218BFC9B2144669
:1065E40015461646174694469146D0B2884220D2A4
:1065F4000C2000FB0230B0F812A001320FFA8AFA24
:10660400D144B0F814A00FFA8AFAD444B0F816A012
:106614000FFA8AFA5744B0F818A00FFA8AFA5644C7
:10662400B0F81AA0808B0FFA8AFA00B255440444D9
:10663400DBE70E4B99FBF1F99CFBF1FC97FBF1F7BF
:1066440096FBF1F695FBF1F594FBF1F1A3F820909C
:10665400A3F822C09F84DE841D85598583F8328087
:10666400BDE8F087DA2B0020501C00206E1C0020AF
:1066740038B505460C461C48022101F00FFB0028E2
:10668400F9D01A484FF4006100F0D3FD16482946AA
:1066940001F0B0FA1448022101F000FB0028F9D0FF
:1066A4001148012101F0FAFA0028F9D00E4801F04E
:1066B400A3FA0D48214601F09DFA0B48022101F08E
:1066C400EDFA0028F9D00848012101F0E7FA002882
:1066D400F9D0054801F090FABDE8384003484FF47A
:1066E400006100F0A4BD00BF00380040001001406C
:1066F40008B52020BF21FFF7BBFF23208021FFF72F
:10670400B7FFBDE8084024200021FFF7B1BF38B52A
:1067140005460C461B48022101F0C0FA0028F9D0B6
:1067240019484FF4806100F084FD1648294601F0B1
:1067340061FA1448022101F0B1FA0028F9D0114895
:10674400012101F0ABFA0028F9D00E4801F054FA07
:106754000C48214601F04EFA0A48022101F09EFA43
:106764000028F9D00748012101F098FA0028F9D04F
:10677400044801F041FABDE8384003484FF4806111
:1067840000F055BD003800400010014008B520203D
:106794002F21FFF7BCFF21200021FFF7B8FFBDE840
:1067A400084023209021FFF7B2BF2DE9F041504C5F
:1067B40094F84E300133DBB284F84E3094F84E3006
:1067C400812B84BF002384F84E3094F84E30002B84
:1067D4000CBF082606260CBF2625282514BF032730
:1067E40001274448022101F059FA0028F9D042480F
:1067F4004FF4006100F01DFD3E4845F0C00101F07A
:10680400F9F93C48022101F049FA0028F9D0394845
:10681400012101F043FA0028F9D0364801F0ECF9DF
:10682400C0B2207000253348FF2101F0E3F931485C
:10683400022101F033FA0028F9D02E48012101F099
:106844002DFA0028F9D02B4801F0D6F905EB0708FA
:106854000135EBB2C0B2B34204F80800E3D32648D2
:106864004FF4006100F0E3FC2248022101F016FA23
:106874000028F9D020484FF4806100F0DAFC1D486C
:10688400E82101F0B7F91B48022101F007FA0028BA
:10689400F9D01848012101F001FA0028F9D015486F
:1068A40001F0AAF9C0B2607201251248FF2101F07B
:1068B400A1F91048022101F0F1F90028F9D00D489E
:1068C400012101F0EBF90028F9D00A4801F094F90C
:1068D40063190135C0B2072D5872E6D106484FF44A
:1068E400806100F0A4FCBDE8F041FFF715BE00BFD5
:1068F400DA2B0020003800400010014008B5144B8A
:1069040098420FD003F5A053984213D0A3F5C05377
:1069140098421BD14FF40070012101F017F84FF495
:1069240000700EE04FF48060012101F00FF84FF485
:10693400806006E04FF40040012101F007F84FF4B5
:1069440000400021BDE8084001F000B808BD00BFC8
:106954000028014042680B6822F4702222F48072FD
:1069640013430A7910B543EA02234360CB688A686B
:1069740084681A43084B234013434A7943EA420389
:1069840083600B7CC26A013B22F47002DBB242EAF0
:106994000353C36210BD00BFFDF7F1FF0023036082
:1069A400037143718360C360012303747047836878
:1069B40011B143F0010301E023F001038360704748
:1069C400836811B143F4807301E023F4807383601E
:1069D4007047C9B243680AB1194301E023EA0101CF
:1069E40041607047836843F00803836070478068A0
:1069F400C0F3C0007047836843F0040383607047AA
:106A04008068C0F380007047836811B143F4A00329
:106A140001E023F4A003836070478068C0F38050D2
:106A240070474368013923F4604343EA41334360C8
:106A34007047436811B143F4006301E023F4006339
:106A440043607047092970B54FF003040CD9A1F1D4
:106A54000A056C430725A54003FA04F4C66826EA30
:106A640005052C43C4600AE04C430725A54003FAFE
:106A740004F4066926EA050545EA04030361062AC7
:106A84000CD80523013A5A431F23934001FA02F21A
:106A9400446B24EA03031A43426370BD0C2A4FF08B
:106AA40005030BD8073A53431F249C4001FA03F310
:106AB400056B25EA04042343036370BD0D3A5A436E
:106AC4001F23934001FA02F2C46A24EA03031A431F
:106AD400C26270BD836811B143F4801301E023F4F2
:106AE400801383607047C06C80B27047014B186894
:106AF400704700BF4C240140436811B143F48063E4
:106B040001E023F4806343607047436811B143F4A8
:106B1400805301E023F4805343607047836823F477
:106B2400E043194381607047836811B143F4004323
:106B340001E023F4004383607047836811B143F498
:106B4400021301E023F40213836070478068C0F3EA
:106B540040507047092970B54FF003040CD9A1F1D6
:106B64000A056C430725A54003FA04F4C66826EA1F
:106B740005052C43C4600AE04C430725A54003FAED
:106B840004F4066926EA050545EA04030361846BF7
:106B94000232C4F30153D31ADBB2052253431F223A
:106BA4009A40994024EA020444EA0103836370BDD5
:106BB400836B013923F4401343EA01538363704721
:106BC400425070472831405880B27047436823F4DC
:106BD400400323F4007319434160704741628262A9
:106BE4007047436823F01F03194341607047054B06
:106BF4009A6810B142F4000201E022F400029A60A3
:106C0400704700BF00240140036819420CBF0020F4
:106C140001207047C943016070474368006810EA67
:106C2400112004D0C9B219420CBF002001207047C2
:106C34006FEA112101607047044B1A6802F03802B0
:106C44001A601A6810431860704700BF00200240A1
:106C5400044B1A6822F008021A601A68104318607C
:106C6400704700BF00200240044B1A6822F0100253
:106C74001A601A6810431860704700BF0020024071
:106C8400034B044A5A6002F188325A60704700BFCD
:106C94000020024023016745024B1A6942F080023A
:106CA4001A61704700200240014BD8698008704780
:106CB40000200240014B186A704700BF00200240C8
:106CC400024BD869C0F34000704700BF0020024067
:106CD400024B1868C0F34010704700BF0020024008
:106CE400044B1A6909B1104301E022EA000018615B
:106CF400704700BF002002400128064B03D1D86929
:106D040000F001007047DB6818420CBF002001202E
:106D1400704700BF00200240014BD860704700BF9D
:106D240000200240084BDA68D10709D4DA68520718
:106D340008D4DB6813F0100F0CBF04200320704745
:106D440001207047022070470020024013B504461A
:106D5400FFF7E8FF01280FD164B100230193FF235B
:106D64000193019B13B1019B013BF9E7FFF7DAFFA4
:106D7400013CEFE7052002E0002C08BF052002B02B
:106D840010BD38B5054640F6FF70FFF7DFFF042855
:106D940014D10B4C40F6FF70236943F002032361C6
:106DA4006561236943F040032361FFF7CFFF0128A6
:106DB40004D0226941F6FD731340236138BD00BF3E
:106DC4000020024010B540F6FF70FFF7BFFF042813
:106DD40013D10A4C40F6FF70236943F00403236186
:106DE400236943F040032361FFF7B0FF012804D077
:106DF400226941F6FB731340236110BD0020024059
:106E040010B540F6FF70FFF7A1FF042829D1154CF7
:106E1400154B40F6FF70A36003F18833A360236928
:106E240043F020032361236943F040032361FFF708
:106E34008DFF04280ED1226941F6DF7313402361CC
:106E44002369A52243F010032361084B0F201A8005
:106E5400FFF77CFF012804D0226941F6EF73134049
:106E6400236110BD002002402301674500F8FF1F85
:106E740070B505460F200E46FFF768FF042817D1AA
:106E84000C4C0F20236943F001032361B3B22B8020
:106E9400FFF75CFF042804D1360C6E800F20FFF747
:106EA40055FF012804D0226941F6FE731340236183
:106EB40070BD00BF0020024070B505460F200E468D
:106EC400FFF744FF04280FD1084C0F20236943F037
:106ED400010323612E80FFF739FF012804D02269C2
:106EE40041F6FE731340236170BD00BF00200240D1
:106EF40070B505460F200E46FFF728FF042814D16D
:106F04000A4C0B4B0F20A36003F18833A360236961
:106F140043F0100323612E80FFF718FF012804D0EB
:106F2400226941F6EF731340236170BD00200240D3
:106F34002301674510B504460F20FFF707FF042817
:106F44003ED1204B2049E443996001F18831996096
:106F54001969E2B241F01001FF2A196104D1C4F3A6
:106F64000723FF2B08D10EE0184B0F201A81FFF7DF
:106F7400EDFE04281CD1F2E7144A0F205381FFF7D9
:106F8400E5FE042814D1C4F30743FF2B06D00F4AAF
:106F94000F209381FFF7DAFE042809D1240EFF2C79
:106FA40001D1042006E0094B0F20DC81FFF7CEFE5F
:106FB400012805D0034A41F6EF7311690B401361B0
:106FC40010BD00BF002002402301674500F8FF1FE9
:106FD40038B5054640F6FF70FFF7B8FE042836D1F1
:106FE4001B4C1C4B40F6FF70A36003F18833A36075
:106FF400236943F020032361236943F040032361A1
:10700400FFF7A4FE04281BD1226941F6DF73134065
:107014002361236943F0100323610F4B0DB1002258
:1070240000E0A5221A8040F6FF70FFF78FFE0128CA
:107034000DD0074A41F6EF7311690B40136138BD57
:10704400012804D0226941F6DF731340236138BD5F
:10705400002002402301674500F8FF1FF8B5114CDA
:10706400114B0546A36003F18833A3600F200E463D
:107074001746FFF76BFE042813D1236947F0F8077E
:1070840043F0100323613E43084B35435D800F20DA
:10709400FFF75CFE012804D0226941F6EF73134028
:1070A4002361F8BD002002402301674500F8FF1F5B
:1070B40008B5264B98422FD011D8A3F50063984207
:1070C4001ED003F58063984220D0A3F50063984254
:1070D4003AD10420012100F039FC04202FE01C4B9C
:1070E40098421FD003F58063984221D0A3F5006332
:1070F400984229D14020012100F028FC40201EE0C4
:107104000820012100F022FC082018E010200121B1
:1071140000F01CFC102012E02020012100F016FCDD
:1071240020200CE08020012100F010FC802006E0EB
:107134004FF48070012100F009FC4FF480700021AD
:10714400BDE8084000F002BC08BD00BF00140140C7
:10715400001C014008B50120014600F0F7FBBDE822
:1071640008400120002100F0F1BBCB78F0B503F01A
:107174000F04DB0644BF8B781C430B78DBB1026839
:10718400002301269E400D883540B5420FD19E0054
:107194000F27B74004FA06F622EA07023243CE78F4
:1071A400282E01D1456102E0482E08BF0561013354
:1071B400082BE6D102600B88FF2B1DD942680023FF
:1071C40003F108050126AE400D883540B5420FD1C4
:1071D4009E000F27B74004FA06F622EA070232435C
:1071E400CE78282E08BF4561CE78482E08BF0561A9
:1071F4000133082BE4D14260F0BD4FF6FF730380E6
:10720400022383700423C3707047836819420CBF40
:10721400002001207047806880B27047C36819421B
:107224000CBF002001207047C06880B27047016124
:107234007047416170470AB101617047416170470D
:10724400C160704741F480338361816183618369E4
:107254008369704710B5054A4FF68073146823405C
:10726400194341EA0010106010BD00BF0000014046
:10727400014B1860704700BF1C00204230B5134A10
:1072840000F44015B5F5401F536884B206D1556823
:1072940023F0706325F0706555600FE0C20205D5D8
:1072A400C0F30342032505FA02F203E0420D120182
:1072B40004FA02F223EA020343F0706319B1400DA9
:1072C400000184402343014A536030BD0000014063
:1072D40001F003039B000F229A40984010B501F07F
:1072E400FC0101F1804101F580318C6824EA02023D
:1072F4008A608A6802438A6010BD00BF0B4B6FF03E
:1073040070424FF0FF31C3F88010C3F88420C3F8F3
:107314008011C3F88421002202F1C001013200204F
:107324000F2A43F82100F7D1704700BF00E100E0C5
:10733400094B4FF0206209495A6000229A60D960D3
:107344001A615A619A61DA611A625A624FF0FF3225
:107354009A62DA621A63704700ED00E00000FA05F1
:1073640040F0BF60024B40F40030D860704700BF6B
:1073740000ED00E0C27830B503785AB31B4A447874
:10738400D2688578D243C2F30222C2F1040104FA1E
:1073940001F10F24D4402C400C4303F00301C90035
:1073A4002401FF228C408A4003F0FC0303F1604374
:1073B40003F56143D3F8005325EA020122400A434E
:1073C400C3F8002303780122590903F01F0302FACA
:1073D40003F306E05909012203F01F0302FA03F341
:1073E4002031034A42F8213030BD00BF00ED00E0F7
:1073F40000E100E00023037043708370C3707047A2
:1074040001F09FBB01F09FBB01F09FBB01F09FBB4C
:10741400000101F09EBB01F09FBB024B5868C0F312
:107424000930704700ED00E000F01F03012202FA6A
:1074340003F34009044A403052F820001840C31AAC
:1074440058425841704700BF00E100E0014B18600A
:10745400704700BF00EF00E04209012300F01F0065
:1074640003FA00F0024B603243F82200704700BF79
:1074740000E100E0024B5868C0F30900704700BF08
:1074840000ED00E000F01F03012202FA03F34009BB
:10749400044A803052F820001840C21A5042504129
:1074A400704700BF00E100E0014B1868704700BF5F
:1074B40000ED00E021F0604121F07F01014B084321
:1074C4009860704700ED00E0014A024BDA607047B3
:1074D4000400FA0500ED00E0014A024BDA6070474F
:1074E4000100FA0500ED00E0044B1A6909B11043EC
:1074F40001E022EA00001861704700BF00ED00E0DF
:10750400012300F01F0003FA00F0044B5A6A09B18A
:10751400104301E022EA00005862704700ED00E0E9
:1075240010B5114BDB68DB43C3F30223C3F104043E
:10753400A140FF2424FA03F31A401143C0F30122AB
:10754400D2009440090101FA02F2C0F381139B00B6
:1075540003F1604303F56D43986920EA04049C61D8
:10756400986902439A6110BD00ED00E0C0F38320E6
:1075740001238340034A506A1840C11A48424841D3
:10758400704700BF00ED00E000F01F00012101FA88
:1075940000F0024B5A6802435A60704700ED00E065
:1075A40000F01F00411E012000FA01F1024B5A684D
:1075B4000A435A60704700BF00ED00E0C0F3833017
:1075C40001238340044A506A1840B0EB030CDCF1F9
:1075D400000050EB0C00704700ED00E0C0F3814266
:1075E400094B0AB9D86A7047012A0AD1C0F301527B
:1075F400986AD300D840022A14BF00F00F00C0B22A
:107604007047186B704700BF00ED00E0034B10F4A7
:10761400800F0CBF586B986B704700BF00ED00E003
:1076240008B54FF08050012100F09CF9BDE80840F6
:107634004FF08050002100F095B9014B186070475D
:1076440020000E42014B1860704700BF10000E422C
:10765400034B1A6822F0E00210431860704700BF21
:1076640000700040014B1860704700BFA0000E423C
:10767400084B01291A6822F0030240EA020018604C
:10768400054B1A6842F004021A6001D101F034BAC1
:1076940001F034BA0070004010ED00E0074B1A68A6
:1076A40042F004021A601A6842F002021A60044BA3
:1076B4001A6842F004021A6001F01EBA0070004019
:1076C40010ED00E0034B5B6818420CBF0020012062
:1076D400704700BF00700040024B1A6842EA800005
:1076E40018607047007000400C4B1A6842F00102A9
:1076F4001A6059680A4A0A405A601A6822F0847269
:1077040022F480321A601A6822F480221A605A68BD
:1077140022F4FE025A6000229A6070470010024070
:107724000000FFF80C4BB0F5803F1A6822F4803259
:107734001A601A6822F480221A6003D0B0F5802FF0
:1077440004D070471A6842F4803202E01A6842F4A6
:10775400A0221A60704700BF00100240034B1A6851
:1077640022F0F80242EAC00018607047001002409C
:10777400014B1860704700BF00004242034B5A6837
:1077840022F47C12114308435860704700100240F1
:10779400014B1860704700BF60004242034B5A68B7
:1077A40022F0030210435860704700BF00100240EB
:1077B400024B586800F00C00704700BF00100240F4
:1077C400034B5A6822F0F00210435860704700BF20
:1077D40000100240034B5A6822F4E06210435860E0
:1077E400704700BF00100240034B5A6822F46052F5
:1077F40042EAC0005860704700100240044B1A78F7
:1078040009B1104301E022EA00001870704700BF7C
:1078140009100240014B1860704700BFD800424273
:10782400034B5A6822F4404210435860704700BF2B
:1078340000100240064B002201281A701A7002D070
:10784400042802D070471870704705221A707047D8
:1078540020100240014B1860704700BF8004424270
:10786400024B1A6A10431862704700BF00100240AE
:10787400014B1860704700BF3C04424210B51D4BD9
:107884005A6802F00C02042A01D0082A02D01A4BCA
:1078940003600FE05A685968C2F38342C90302F1D6
:1078A400020202D55B689B0301D5144B00E0124B26
:1078B4005A4302600F4A124B5168C1F303115C5CD6
:1078C4000168E14041605468C4F302241C5D21FA5C
:1078D40004F484605468C4F3C2241C5DE140C160B4
:1078E4005268C2F3813213441B7CB1FBF3F1016192
:1078F40010BD00BF0010024000127A0000093D00D4
:107904002C910008044B5A6909B1104301E022EAA2
:1079140000005861704700BF00100240044B9A6990
:1079240009B1104301E022EA00009861704700BFEA
:1079340000100240044BDA6909B1104301E022EA65
:107944000000D861704700BF00100240044BDA68A1
:1079540009B1104301E022EA0000D860704700BF7B
:1079640000100240044B1A6909B1104301E022EAF5
:1079740000001861704700BF00100240014B1860FE
:10798400704700BF40044242014B1860704700BF7B
:107994004C004242014B1870704700BF0710024070
:1079A4004309012B074A01D1136803E0022B0CBFE2
:1079B400136A536A00F01F0023FA00F000F001007C
:1079C400704700BF0010024007B500230193312027
:1079D400FFF7E6FF019B0133019318B9019BB3F54F
:1079E400A06FF4D13120FFF7DBFF003018BF012076
:1079F40003B05DF804FB034B5A6A42F080725A628A
:107A0400704700BF00100240034B9B6818420CBF34
:107A140000200120704700BF00100240014B187085
:107A2400704700BF0A10024008B5164B98421BD09D
:107A340003F5744398420BD0A3F5784398421FD1C1
:107A44004FF480400121FFF78DFF4FF4804012E096
:107A54004FF480500121FFF779FFBDE808404FF44F
:107A640080500021FFF772BF4FF400400121FFF75F
:107A740079FF4FF400400021BDE80840FFF772BFD2
:107A840008BD00BF003C00400B8810B54C8802883C
:107A940023438C8802F441522343CC8823430C892A
:107AA40023434C8923438C892343CC8923431343A5
:107AB4009BB20380838B23F400631B041B0C83831E
:107AC4000B8A038210BDF0B5838B87B023F47B63EC
:107AD40023F00F031B041B0C8383022303840B89F1
:107AE400868B022B05460C46B6B223D001A88F889C
:107AF400FFF7C4FEE3882289002F14BF0227012761
:107B0400B3F5007F019B4FF00A011CBF7F017A434C
:107B140001FB03F308BF1202B3FBF2F305330A229D
:107B24009BB2B3FBF2F303F001021202C3F34F035F
:107B340092B200E00022991E89B2FE2928BF0022D9
:107B4400E18828BF022313430B439BB22B84238871
:107B54006288334343F400631343A2881343628966
:107B640013439BB2AB8307B0F0BD00230380438073
:107B74008380C380038143818381C381072303827C
:107B8400704700230222038043808380C3800281E4
:107B940043817047038819B19BB243F0400303E06B
:107BA40023F040031B041B0C03807047838B19B123
:107BB4009BB243F4806303E023F480631B041B0C37
:107BC40083837047090901238B409BB21AB18288D1
:107BD40092B2134303E0828892B222EA03038380C1
:107BE400704783889BB20AB1194301E023EA01017B
:107BF4008180704781817047808980B270474FF6D9
:107C0400FF639942038803D09BB243F4807303E07B
:107C140023F480731B041B0C03807047838819B101
:107C24009BB243F0040303E023F004031B041B0C86
:107C340083807047038823F400631B041B0C0380B8
:107C440003889BB219430180704703889BB243F4B5
:107C5400805303807047038819B19BB243F40053E7
:107C640003E023F400531B041B0C03807047012919
:107C740014BF008B808A80B27047008A80B270473C
:107C8400B1F5804F038803D19BB243F4804303E0F2
:107C940023F480431B041B0C03807047038919429F
:107CA4000CBF002001207047C94389B2018170478D
:107CB40001F00F02012303FA02F210B5848800894F
:107CC400A4B280B2104005D009098B401C420CBFFD
:107CD4000020012010BD01F00F0101238B40DB4384
:107CE4009BB20381704700BF044B04281A680CBF81
:107CF40042F0040222F004021A60704710E000E02F
:107D0400014B5860704700BF10E000E00128084BA9
:107D140003D11A6842F0010204E0023004D11A6867
:107D240022F001021A60704700229A60704700BF77
:107D340010E000E0044B1A6810B142F0020201E0C6
:107D440022F002021A60704710E000E0014B9868CC
:107D5400704700BF10E000E0C308022B044B0CBFC7
:107D64001B68DB6823FA00F000F00100704700BFD5
:107D740010E000E030B5048C24F001042404240C49
:107D84000484058B048CADB225F0F305A4B22A4318
:107D940024F0020442EA031344F001049DB2214397
:107DA4000583018430BD30B5048C24F01004240410
:107DB400240C0484048B058C24F44074ADB2240593
:107DC400240D25F0200545F0100544EA022242EA7C
:107DD400033345EA01119BB28DB20383058430BDA0
:107DE40008B52E4B98423AD010D8A3F500639842B8
:107DF40025D003F5806398422BD0B0F1804F4CD14D
:107E040001200146FFF7AEFD01201DE0244B9842FE
:107E140031D004D8A3F58063984226D008BD214B05
:107E2400984204D003F5006398422AD008BD4FF469
:107E340000600121FFF78AFD4FF4006028E0022072
:107E44000121FFF78FFD02200021BDE80840FFF764
:107E540089BD04200121FFF785FD0420F4E70820F3
:107E64000121FFF77FFD0820EEE710200121FFF735
:107E740079FD1020E8E720200121FFF773FD202081
:107E8400E2E74FF400500121FFF760FD4FF400508A
:107E94000021BDE80840FFF759BD08BD000C0040B3
:107EA40000140040002C0140038803F08F0303807A
:107EB4000388CA889BB213434A8813439BB2038046
:107EC4008B8883850B88038501238382044B984226
:107ED40003D003F50063984201D10B7A03867047FF
:107EE400002C0140038C70B523F001031B041B0C10
:107EF4000384038C8488028B0D8822F070021204A0
:107F0400120C4E882A430D8923F002031B043543C7
:107F1400ADB21B0C2B43CD88A4B285860D4DA8426F
:107F240003D005F50065A8420FD14D8923F008035D
:107F34002B438D8823F004032B4347F6FF4525404C
:107F4400CC8989890C43A4B22C43848002830384A2
:107F540070BD00BF002C0140038C30B523F010032A
:107F64001B041B0C0384038C8288048B0D8824F46B
:107F7400E0442404240C23F0200344EA05241B04D5
:107F84000D891B0C43EA05134D8892B243EA05138D
:107F9400CD88A4B20587114D9BB2A84203D005F544
:107FA4000065A84216D14D8923F080039BB243EAB1
:107FB40005134FF6BF751D408B8845EA031347F23E
:107FC400FF3515408A899BB245EA8205CA8945EA8C
:107FD400820292B282800483038430BD002C01406B
:107FE400038C30B523F480731B041B0C0384038CB3
:107FF4008288848B0D8824F070042404240C23F4D8
:1080040000732C431B040D891B0C43EA05234D8884
:1080140092B243EA0523CD889BB28587104DA842CE
:1080240003D005F50065A84216D14D8923F40063F9
:108034009BB243EA05234FF6FF351D408B8845EA82
:10804400032344F6FF7515408A899BB245EA02155D
:10805400CA8945EA021292B282808483038430BDC5
:10806400002C0140038C30B523F480531B041B0CFB
:108074000384038C8488828B0D8822F4E0421204EA
:10808400120C23F4005342EA05221B040D891B0C35
:1080940043EA05334D88A4B243EA0533CD8892B24E
:1080A400A0F84050084D9BB2A84203D005F50065E6
:1080B400A84205D18989C4F30D0444EA8114A4B209
:1080C40084808283038430BD002C01404A880B885D
:1080D40013438A881343CA8813430A8913434A897A
:1080E40013438A8913439BB2A0F8443070474FF678
:1080F400FF73838000230380C3804380037270472F
:108104000023038043808380C38003814381838170
:10811400C381704700230122038043808280C3808F
:10812400038170470023038043808380C3800381DD
:10813400438183817047038819B19BB243F00103E3
:1081440003E023F001039B059B0D03807047B0F807
:10815400443029B16FEA43436FEA53439BB201E0D1
:10816400C3F30E03A0F84430704783899BB20AB16D
:10817400194301E023EA010181817047818270473C
:108184000A43A0F84820704783899BB20AB1194377
:1081940001E023EA010181817047038923F0070389
:1081A4001B041B0C03817047038923F070031B0419
:1081B4001B0C1943018103899BB243F0070303811C
:1081C400704738B50D46602D114604464FF0010244
:1081D40002D1FFF7E8FD01E0FFF7CCFD238923F08E
:1081E40070031B041B0C2B43238123899BB243F094
:1081F4000703238138BD10B5048942EA0323E4B29E
:108204001C43A4B22143018110BD10B50446FFF7FD
:10821400F2FF238923F077031B041B0C43F077033D
:10822400238110BD10B50446FFF7E5FF23899BB2F7
:1082340043F48043238110BD018582827047038803
:1082440023F070039B059B0D19430180704703893C
:1082540023F070031B041B0C19430181704770B594
:108264000589048B068C24F44074B6B224F003040C
:1082740026F0220625F00705240432432D04240C9D
:108284002D0C44F4807442EA0313294344F001049E
:108294009EB201810483068470BD038B23F07003B6
:1082A4001B041B0C194301837047038B23F4E04325
:1082B4001B041B0C43EA01218BB203837047838B9D
:1082C40023F070031B041B0C194381837047838BB9
:1082D40023F4E0431B041B0C43EA01218BB2838388
:1082E4007047038819B19BB243F0800303E023F085
:1082F40080039B059B0D03807047838819B19BB253
:1083040043F0040303E023F004031B041B0C8380E9
:108314007047838819B19BB243F0080303E023F04C
:1083240008031B041B0C83807047838819B19BB21C
:1083340043F0010303E023F001031B041B0C8380BF
:108344007047038B23F008031B041B0C19430183A0
:108354007047038B23F400631B041B0C43EA0121C5
:108364008BB203837047838B23F008031B041B0C1D
:10837400194381837047838B23F400631B041B0C14
:1083840043EA01218BB283837047038B23F00403F8
:108394001B041B0C194301837047038B23F4806374
:1083A4001B041B0C43EA01218BB203837047838BAC
:1083B40023F004031B041B0C194381837047838B34
:1083C40023F480631B041B0C43EA01218BB28383D7
:1083D4007047038B23F080031B041B0C1943018398
:1083E4007047038BC3F30E0343EA01218BB203836B
:1083F4007047838B23F080031B041B0C1943818378
:108404007047838BC3F30E0343EA01218BB283834A
:108414007047038C23F002031B041B0C19430184D3
:108424007047038C23F008031B041B0C19430184BD
:108434007047038C23F020031B041B0C43EA011137
:108444008BB203847047038C23F080031B041B0C42
:1084540043EA01118BB203847047038C23F4007345
:108464001B041B0C43EA01218BB203847047038C69
:1084740023F400631B041B0C43EA01218BB2038425
:108484007047038C23F400531B041B0C43EA013193
:108494008BB20384704701238B408A4010B5048C4F
:1084A400A4B224EA03030384038C13439BB203841E
:1084B40010BD04238B408A4010B5048CA4B224EA76
:1084C40003030384038C13439BB2038410BD012371
:1084D4008B4010B5048C1830A4B224EA0303038142
:1084E40021F008033BB9490844584FF68F732340E1
:1084F400435043580AE00439C1F34E01445848F646
:10850400FF73234043501202435892B21A4342501D
:1085140010BD038819B19BB243F0020303E023F0BA
:1085240002039B059B0D03807047038819B19BB21E
:1085340043F0040303E023F004039B059B0D038035
:108544007047838819B19BB243F0800303E023F0A2
:1085540080031B041B0C83807047038823F00803EB
:108564009B059B0D038003889BB2194301807047D0
:10857400838823F070031B041B0C838083889BB2C5
:10858400194381807047038923F007031B041B0CE4
:10859400038103899BB2194301817047038923F046
:1085A40080031B041B0C038103899BB219430181C3
:1085B4007047818470478185704781867047018741
:1085C400704781877047A0F840107047038B23F0F1
:1085D4000C031B041B0C0383038B9BB21943018301
:1085E4007047038B23F440631B041B0C0383038B2E
:1085F4009BB243EA01218BB203837047F8B50C4662
:10860400A2884988B4F800E0054600290CBF022777
:108614000027012A14BF012602262389BEF1000F78
:1086240011D1FFF7A7FB2846E188FFF7CFFF2846C3
:10863400394632462389FFF7B6FB2846E188BDE870
:10864400F840FFF7CEBFFFF7AEFB2846E188FFF7FF
:10865400C8FF2846394632462389FFF78BFB284654
:10866400E188BDE8F840FFF7B1BF838B23F00C032A
:108674001B041B0C8383838B9BB219438183704738
:10868400838B23F440631B041B0C8383838B9BB277
:1086940043EA01218BB283837047F8B50E880D46F7
:1086A40004464988AA882B893EB9FFF763FB204614
:1086B400E988BDE8F840FFF789BF042E07D1FFF72A
:1086C40072FB2046E988BDE8F840FFF78ABF082E10
:1086D400078C1CD127F480773F043F0C0784868BDA
:1086E400078CB6B226F0F30646EA0313BFB29BB278
:1086F4001A4327F4007343EA012189B241F48071DB
:1087040082830184E988BDE8F840FFF7AEBF27F40F
:1087140080573F043F0C0784868B078C26F44076F1
:108724003605BFB2360D46EA022627F4005242EA65
:10873400013146EA033389B29BB241F48051838309
:108744000184E988BDE8F840FFF79ABF0388DBB2EB
:10875400038003889BB2194301807047808E80B2E6
:108764007047008F80B27047808F80B27047B0F836
:10877400400080B27047808C80B27047008D80B218
:108784007047038A19420CBF002001207047C94377
:1087940089B201827047038A828911EA030092B286
:1087A40003D011420CBF002001207047C94389B295
:1087B4000182704708B5224B98422CD008D8A3F503
:1087C4000063984217D003F5806398421BD008BD1C
:1087D4001C4B984227D003F5684398422FD14FF49D
:1087E40080400121FFF7B2F8BDE808404FF4804013
:1087F4000021FFF7ABB84FF400300121FFF7B2F8C6
:108804004FF4003016E04FF480200121FFF7AAF85E
:108814004FF480200EE04FF400200121FFF7A2F86E
:108824004FF4002006E04FF480100121FFF79AF87E
:108834004FF480100021BDE80840FFF793B808BD4D
:10884400004C00400050004030B5038ACA889BB2F7
:1088540023F44053134303820D4683890989AA886C
:1088640023F4B0530A4323F00C0369891B040A431D
:108874001B0C13439BB28381838AAA899BB223F482
:10888400407387B013430446838201A8FEF7F6FFC2
:10889400049A039B0D498C4208BF134619214B438C
:1088A4002A689200B3FBF2F16423B1FBF3F21201E4
:1088B400100903FB101109013231B1FBF3F303F08A
:1088C4000F031A4392B2228107B030BD0038014031
:1088D4004FF4165303600C2200238380C38003816A
:1088E40042818381704710B54C880B88028A2343E8
:1088F4008C88C98892B223430B4322F470621343D9
:108904009BB2038210BD0023038043808380C38015
:108914007047838919B19BB243F4005303E023F4F5
:1089240000531B041B0C83817047C1F3421310B521
:10893400012401F01F01A34204FA01F101D10C301A
:1089440003E0022B0CBF1030143003680AB1194342
:1089540001E023EA0101016010BD838A9BB20AB1E0
:10896400194301E023EA010181827047038A23F05D
:108974000F031B041B0C0382038A9BB2194301825D
:108984007047838923F400631B041B0C8381838950
:108994009BB2194381817047838919B19BB243F01B
:1089A400020303E023F002031B041B0C83817047C2
:1089B400038A23F020031B041B0C0382038A9BB24B
:1089C400194301827047038A19B19BB243F480436F
:1089D40003E023F480431B041B0C03827047C1F3A0
:1089E4000801818070478088C0F30800704783893C
:1089F4009BB243F0010383817047038BDBB2038393
:108A0400038B9BB243EA012101837047038B03F478
:108A14007F430383038B9BB2194301837047838A8B
:108A240019B19BB243F0200303E023F020031B049D
:108A34001B0C83827047838A19B19BB243F01003E5
:108A440003E023F010031B041B0C83827047838A0A
:108A540019B19BB243F0080303E023F008031B049D
:108A64001B0C83827047838A23F004031B041B0CB2
:108A74008382838A9BB2194381827047838A19B1A6
:108A84009BB243F0020303E023F002031B041B0C1C
:108A940083827047038819420CBF0020012070476D
:108AA400C94389B20180704710B5C1F3421401F083
:108AB4001F030122012C02FA03F201D1838903E08E
:108AC400022C0CBF038A838A9BB21340028892B2A1
